:0C0858000A28C0F9A4B0999282F88090A0
:0B08890053A01FEFC43354E042A02234
:10083900758901758CF7E4F58BD28CD2A9D2AF22D8
:1007E30085283785283885283985283A85283B8503
:0907F300283C85283D85283E22A2
:10045800E4FFFE7D207C41AB27AA26A925A824120B
:10046800000E1201CBAB07AA067C007D6412025E67
:1004780074282FF8E6F5377C007D0AAF03AE021228
:10048800025E7C007D0A12025E74282DF8E6547F15
:10049800F538AE02AF037C007D0A12025E74282D87
:1004A800F8E6F539753AFF753BFF753CFF753DFF7A
:0304B800753EFF8F
:0104BB00221E
:1003EE007F811205488F217F831205488F227F85DA
:1003FE001205488F34E53475F00A842428F8E6F5A2
:10040E0037E53475F00A84742825F0F8E6F538756A
:10041E0039BFE52275F00A842428F8E6F53AE5227C
:10042E0075F00A84742825F0F8E6F53B753CBFE5B7
:10043E002175F00A842428F8E6F53DE52175F00AC9
:0A044E0084742825F0F8E6F53E223C
:100507001206218F35E53575F064842428F8E6F561
:1005170037E53575F00A8475F00A84742825F0F8F4
:10052700E6F538E53575F00A84742825F0F8E6F520
:1005370039753AFF753BFF753CFF753DFF753EFF0B
:010547002291
:10058800EF75F064842428F8E6F537EF75F00A84EF
:1005980075F00A84742825F0F8E6F538EF75F00A46
:1005A80084742825F0F8E6F539753AFF753BFF7530
:0905B8003CFF753DFF753EFF227A
:0C086500AE077F04120889EEF4F5802233
:1005C1007F071208897580FFAF3F1208657F061209
:1005D1000889AF237401A807088002C333D8FCF54A
:1005E100807F0712088974372523F8E6F5800523F3
:0405F1005323072267
:10064D00C2C443B00FE5B0540F24F9601724FC6009
:10065D000F24FE600714700F7536072275360622BB
:08066D007536052275360422E2
:1002C1001207E3120839120675E4F53FAF3F120831
:1002D100657D3C7F031207347F0A1206EA7F037EA5
:1002E1000012070F1205887F037E0012070F120507
:1002F1008812064DC3E5339414E532940040F2E4CC
:10030100F532F533E53660E924FB6011146013140E
:100311006040240370DB7F0112050780D41203EED5
:1003210080CF1204BC8F0B8E0A8D098C08E4FFFE6E
:100331007DF07C41AB0BAA0AA909A808120114504F
:100341000C850B27850A2685092585082412045862
:10035100809FB200300005433F018095533FFE80EE
:01036100900B
:03000B000206C426
:1006C400C0E0C0D075D000C000C006C007758CF76C
:1006D4000533E533700205321205C1D007D006D0C8
:0606E40000D0D0D0E0328E
:0407FC007F057E00F7
:100800007C007D0A12024CEF1FAC0670011E4C707A
:02081000F622CE
:02075500AB07F0
:10075700E4FAC294EB1392941207FCD294EBC313FE
:0C076700FB0ABA08ED7F057E00020800C6
:1007C900E4FAC294EBC313FBD2943094034303803D
:0907D9001207FC0ABA08EBAF0399
:0107E20022F4
:10069D00C201D2947F0C7E00120800C2947F507E5E
:1006AD0000120800D2947F0A7E00120800A29492D4
:0606BD00011207FCA2017E
:0106C3002214
:1004BC0012069D7FCC1207557F441207557FFA7E9A
:1004CC000012080012069D7FCC1207557FBE120742
:1004DC00557FFA7E001208001207C9A9071207C936
:1004EC00AB0712069DEBFEE9FFFDAC06E412019290
:0A04FC00E4FBFA7980783D12000E4F
:0105060022D2
:10082600E4FEC297EF1392A3EFC313FFD2970EBE57
:0208360008F0C8
:01083800229D
:10081200C29300C29700D29300120826AF051208B5
:0408220026C2932235
:10054800E4FDC29300C29700D29300120826E4FF8C
:10055800C297EDC313FD30A303430580D2970FBFA5
:1005680008EEC29300C29700D29700C2A300D2A39C
:0F05780000EDC4540F75F00AA4FFED540F2FFFD0
:010587002251
:10067500C2AFE4FD7F8E1208127D507F80120812F2
:100685007D597F821208127D237F841208127D8096
:080695007F8E120812D2AF2281
:04087100D2A07F286A
:0808750000AE071FEE70F9222E
:0F084900D2A1120871C2A17F28120875C2A02285
:0C087D00C2A1120871D2A17F28020875E8
:07077300120791AD07C2015E
:10077A00C2A0A20192A17F28120875120871C2A014
:07078A00D2A17F28020875CF
:0A07AE00C2AF1208497FA01205F542
:1007B800120871A2A19201C2A07F28120875A20195
:0107C800220E
:0205F500AD0750
:1005F700E4FCC2A07F28120875ED30E704D2A18081
:1006070002C2A17F28120875D2A0ED25E0FD7F2840
:090617001208750CBC08DBC2A03E
:0106200022B7
:10079100E4FC120871ED25E0FD30A103430501C21F
:0C07A100A07F281208750CBC08E8AF050A
:0107AD002229
:02062100AB0725
:100623001208497F901205F51207B8AF031205F5BA
:100633001207B812087D1208497F911205F51207B7
:09064300B812077312087DAF051F
:01064C00228B
:1006EA00AB07C2AF1208497F901205F51207B87F0F
:1006FA00401205F51207B8AF031205F51207B81232
:05070A00087DD2AF22C2
:10073400AB05AA071207AEAF021205F51207B8AF50
:10074400031205F51207B812087DD2AF7FC802085C
:01075400752F
:04070F00AB07AA0684
:100713001207AEAF031205F51207B81208497FA1FD
:100723001205F51207B812077312087DD2AFAF0591
:0107330022A3
:10000E00EC4D6011E8497017ED33EC3304600DE4EC
:10001E00FCFFFEFD22E933E8330470F802023712CA
:10002E00020258046009E4CC2481500628500902CB
:10003E00024128400302023EC0E0EB4A7044B98000
:10004E0006D0E0FB02022DEF4E701CBD8008EBFFC8
:10005E00EAFEE9FD80EBE98DF0A4FEE5F00200F783
:10006E00E9CDF9EAFEEBFFEF89F0A4FCE5F0CE89CD
:10007E00F0A42EFFE435F0CD89F0A42DFEE435F08A
:10008E008067EF4E7005BD80D780C3EF8BF0A4ACB8
:10009E00F0EE8BF0A42CFCE435F0F8EF8AF0A42CF3
:1000AE00E5F038FCE433CB8DF0A42CFCE5F03BF806
:1000BE00EE8AF0A42CFCE5F038F8E433CF89F0A4F6
:1000CE002CFCE5F038CF3400CE89F0A42FFFE5F0FC
:1000DE003EFEE433C98DF0A42EFEE5F039CD8AF054
:1000EE00A42FFFE5F03EFEE43DFD33D0E0FB5007CC
:1000FE000BBB000F020241EC2CFCEF33FFEE33FE84
:06010E00ED33FD020219B1
:1001140074F8CC6480CCC86480C8F58204604FC392
:10012400EB9FF5F0EA9E42F0E99D42F0E89C45F031
:10013400603C501DE5825FFFE582D313CB5BCBF4BB
:100144002B5582FB50280ABA002409B900200880E4
:100154001DE5825BFBE582D313CF5FCFF4C3132F7E
:100164005582FF50090EBE00050DBD00010CC3EB06
:100174009FF5F0EA9E42F0E99D42F0E89C45F0606C
:0901840007CC4820E701B3EC228E
:10018D0075F020800E75F010800575F0087D007EED
:10019D00007F003392D530D5031202B3EC334010FB
:1001AD00EF33FFEE33FEED33FDEC33FCD5F0ED22F6
:0E01BD00E5F0247EA2D513CC92E7CDCEFF2232
:1001CB00EDD2E7CD33EC3392D524814006E4FFFE2C
:1001DB00FDFC22FCE4CFCECDCC24E0501174FF808B
:1001EB00EDC3CC13CCCD13CDCE13CECF13CF047028
:0701FB00F030D5DE0202B373
:10020200E9D2E7C933E833F892D5EDD2E7CD33EC42
:0702120033FC5002B2D522BB
:10021900EC30E7100FBF000C0EBE00080DBD000446
:100229000BEB6014A2D5EB13FCED92E7FD2274FFF2
:10023900FCFDFEFF22E480F8A2D574FF13FC7D804B
:03024900E480EF5F
:0300000002036296
:0C036200787FE4F6D8FD75813F0203A906
:10024C00EF8DF0A4A8F0CF8CF0A428CE8DF0A42EC6
:02025C00FE2280
:10025E00BC000BBE0029EF8DF084FFADF022E4CC84
:10026E00F875F008EF2FFFEE33FEEC33FCEE9DEC4D
:10027E00984005FCEE9DFE0FD5F0E9E4CEFD22ED93
:10028E00F8F5F0EE8420D21CFEADF075F008EF2FDD
:10029E00FFED33FD4007985006D5F0F222C398FDCE
:0502AE000FD5F0EA226B
:0E02B300C3E49FFFE49EFEE49DFDE49CFC225C
:10036E000202C1E493A3F8E493A34003F68001F2E2
:10037E0008DFF48029E493A3F85407240CC8C33390
:10038E00C4540F4420C8834004F456800146F6DF5F
:10039E00E4800B0102040810204080900858E47E8F
:1003AE00019360BCA3FF543F30E509541FFEE49354
:1003BE00A360010ECF54C025E060A840B8E493A31B
:1003CE00FAE493A3F8E493A3C8C582C8CAC583CA46
:1003DE00F0A3C8C582C8CAC583CADFE9DEE780BEFE
:010864000093
:00000001FF
