:0C05E5000A26C0F9A4B0999282F8809018
:0B05F20053A01FEFC43354E042A022CE
:1005D500758901758CF7E4F58BD28CD2A9D2AF223F
:10057F00852632852633852634852635852636858C
:09058F002637852638852639221D
:10034D00E4FFFE7D207C41AB25AA24A923A822121F
:10035D00000E1201CBAB07AA067C007D6412025E73
:10036D0074262FF8E6F5327C007D0AAF03AE02123B
:10037D00025E7C007D0A12025E74262DF8E6547F23
:10038D00F533AE02AF037C007D0A12025E74262D9A
:04039D00F8E6F53455
:0103A1002239
:100494007F061205F2AF217401A807088002C33356
:1004A400D8FCF5807F071205F274322521F8E6F5B1
:0704B40080052153210722FE
:1004E200AE077F041205F2EED394075011AF0674E3
:1004F20001A807088002C333D8FCF4528022E4F535
:02050200802255
:10052600AE077F041205F2EED394075010AF06749F
:1005360001A807088002C333D8FC4280227580FFD9
:010546002292
:1003A20012057F1205D57F08120526C3E531940A8E
:1003B200E530940040F5E4F530F5311203ED8F0B92
:1003C2008E0A8D098C08E4FFFE7DF07C41AB0BAAFE
:1003D2000AA909A808120114500C850B25850A24C4
:0B03E20085092385082212034D80C00E
:03000B00020504E7
:10050400C0E0C0D075D000C000C007758CF70531BD
:10051400E53170020530120494D007D000D0D0D059
:02052400E032C3
:040598007F057E005D
:10059C007C007D0A12024CEF1FAC0670011E4C70E1
:0205AC00F62235
:02054700AB0700
:10054900E4FAC294EB139294120598D294EBC31374
:0C055900FB0ABA08ED7F057E0002059C3D
:10056500E4FAC294EBC313FBD294309403430380A3
:090575001205980ABA08EBAF0365
:01057E00225A
:1004BB00C200D2947F0C7E0012059CC2947F507EAA
:1004CB000012059CD2947F0A7E0012059CA2949286
:0604DB0000120598A200CA
:0104E10022F8
:1003ED001204BB7FCC1205477F441205477FFA7E6E
:1003FD000012059C1204BB7FCC1205477FBE12056F
:10040D00477FFA7E0012059C120565A90712056546
:10041D00AB071204BBEBFEE9FFFDAC06E412019243
:0A042D00E4FBFA7980783D12000E1E
:0104370022A2
:1005C200E4FEC297EF1392A3EFC313FFD2970EBEBE
:0205D20008F02F
:0105D4002204
:1005AE00C29300C29700D293001205C2AF05120586
:0405BE00C2C2932200
:10043800E4FDC29300C29700D293001205C2E4FF04
:10044800C297EDC313FD30A303430580D2970FBFB6
:1004580008EEC29300C29700D29700C2A300D2A3AD
:0304680000AF05DD
:01046B00226E
:10046C00C2AFE4FD7F8E1205AE7D507F801205AECB
:10047C007D597F821205AE7D237F841205AE7D806F
:08048C007F8E1205AED2AF22F3
:10000E00EC4D6011E8497017ED33EC3304600DE4EC
:10001E00FCFFFEFD22E933E8330470F802023712CA
:10002E00020258046009E4CC2481500628500902CB
:10003E00024128400302023EC0E0EB4A7044B98000
:10004E0006D0E0FB02022DEF4E701CBD8008EBFFC8
:10005E00EAFEE9FD80EBE98DF0A4FEE5F00200F783
:10006E00E9CDF9EAFEEBFFEF89F0A4FCE5F0CE89CD
:10007E00F0A42EFFE435F0CD89F0A42DFEE435F08A
:10008E008067EF4E7005BD80D780C3EF8BF0A4ACB8
:10009E00F0EE8BF0A42CFCE435F0F8EF8AF0A42CF3
:1000AE00E5F038FCE433CB8DF0A42CFCE5F03BF806
:1000BE00EE8AF0A42CFCE5F038F8E433CF89F0A4F6
:1000CE002CFCE5F038CF3400CE89F0A42FFFE5F0FC
:1000DE003EFEE433C98DF0A42EFEE5F039CD8AF054
:1000EE00A42FFFE5F03EFEE43DFD33D0E0FB5007CC
:1000FE000BBB000F020241EC2CFCEF33FFEE33FE84
:06010E00ED33FD020219B1
:1001140074F8CC6480CCC86480C8F58204604FC392
:10012400EB9FF5F0EA9E42F0E99D42F0E89C45F031
:10013400603C501DE5825FFFE582D313CB5BCBF4BB
:100144002B5582FB50280ABA002409B900200880E4
:100154001DE5825BFBE582D313CF5FCFF4C3132F7E
:100164005582FF50090EBE00050DBD00010CC3EB06
:100174009FF5F0EA9E42F0E99D42F0E89C45F0606C
:0901840007CC4820E701B3EC228E
:10018D0075F020800E75F010800575F0087D007EED
:10019D00007F003392D530D5031202B3EC334010FB
:1001AD00EF33FFEE33FEED33FDEC33FCD5F0ED22F6
:0E01BD00E5F0247EA2D513CC92E7CDCEFF2232
:1001CB00EDD2E7CD33EC3392D524814006E4FFFE2C
:1001DB00FDFC22FCE4CFCECDCC24E0501174FF808B
:1001EB00EDC3CC13CCCD13CDCE13CECF13CF047028
:0701FB00F030D5DE0202B373
:10020200E9D2E7C933E833F892D5EDD2E7CD33EC42
:0702120033FC5002B2D522BB
:10021900EC30E7100FBF000C0EBE00080DBD000446
:100229000BEB6014A2D5EB13FCED92E7FD2274FFF2
:10023900FCFDFEFF22E480F8A2D574FF13FC7D804B
:03024900E480EF5F
:030000000202C138
:0C02C100787FE4F6D8FD7581390203084F
:10024C00EF8DF0A4A8F0CF8CF0A428CE8DF0A42EC6
:02025C00FE2280
:10025E00BC000BBE0029EF8DF084FFADF022E4CC84
:10026E00F875F008EF2FFFEE33FEEC33FCEE9DEC4D
:10027E00984005FCEE9DFE0FD5F0E9E4CEFD22ED93
:10028E00F8F5F0EE8420D21CFEADF075F008EF2FDD
:10029E00FFED33FD4007985006D5F0F222C398FDCE
:0502AE000FD5F0EA226B
:0E02B300C3E49FFFE49EFEE49DFDE49CFC225C
:1002CD000203A2E493A3F8E493A34003F68001F2A2
:1002DD0008DFF48029E493A3F85407240CC8C33332
:1002ED00C4540F4420C8834004F456800146F6DF01
:1002FD00E4800B01020408102040809005E5E47EA7
:10030D00019360BCA3FF543F30E509541FFEE493F5
:10031D00A360010ECF54C025E060A840B8E493A3BC
:10032D00FAE493A3F8E493A3C8C582C8CAC583CAE7
:10033D00F0A3C8C582C8CAC583CADFE9DEE780BE9F
:0105F1000009
:00000001FF
