:0C0637000A28C0F9A4B0999282F88090C3
:0B065C0053A01FEFC43354E042A02263
:10061800758901758CF7E4F58BD28CD2A9D2AF22FB
:10059A008528358528368528378528388528398558
:0905AA00283A85283B85283C22F3
:10033E00E4FFFE7D207C41AB27AA26A925A8241226
:10034E00000E120152AB07AA067C007D641201E575
:10035E0074282FF8E6F5357C007D0AAF03AE021245
:10036E0001E57C007D0A1201E574282DF8E6547F24
:10037E00F536AE02AF037C007D0A1201E574282D1E
:04038E00F8E6F53761
:010392002248
:1002D4007F811203DE8F217F831203DE8F227F85CD
:1002E4001203DE8F34E53475F00A842428F8E6F529
:1002F40035E53475F00A84742825F0F8E6F536758A
:1003040037BFE52275F00A842428F8E6F538E5229B
:1003140075F00A84742825F0F8E6F539753ABFE5D6
:100324002175F00A842428F8E6F53BE52175F00AE6
:0A03340084742825F0F8E6F53C2259
:100472007F0612065CAF237401A807088002C3330B
:10048200D8FCF5807F0712065C74352523F8E6F563
:07049200800523532307221C
:1004C000AE077F0412065CEED394075011AF06749A
:1004D00001A807088002C333D8FCF4528022E4F557
:0204E000802278
:10050400AE077F0412065CEED394075010AF067456
:1005140001A807088002C333D8FC4280227580FFFB
:0105240022B4
:1005250012059A12061812044A7F08120504C3E53B
:1005350033940AE532940040F5E4F532F53380EE64
:03000B000204E20A
:1004E200C0E0C0D075D000C000C007758CF70533DE
:1004F200E53370020532120472D007D000D0D0D09A
:02050200E032E5
:0405CA007F057E002B
:1005CE007C007D0A1201D3EF1FAC0670011E4C7029
:0205DE00F62203
:02054500AB0702
:10054700E4FAC294EB1392941205CAD294EBC31344
:0C055700FB0ABA08ED7F057E000205CE0D
:10058000E4FAC294EBC313FBD29430940343038088
:090590001205CA0ABA08EBAF0318
:01059900223F
:10049900C200D2947F0C7E001205CEC2947F507E9A
:1004A900001205CED2947F0A7E001205CEA2949244
:0604B900001205CAA200BA
:0104BF00221A
:100393001204997FCC1205457F441205457FFA7EEE
:1003A300001205CE1204997FCC1205457FBE1205BB
:1003B300457FFA7E001205CE120580A9071205803B
:1003C300AB07120499EBFEE9FFFDAC06E412011939
:0A03D300E4FBFA7980783D12000E79
:0103DD0022FD
:1005F400E4FEC297EF1392A3EFC313FFD2970EBE8C
:0206040008F0FC
:0106060022D1
:1005E000C29300C29700D293001205F4AF05120522
:0405F000F4C293229C
:1003DE00E4FDC29300C29700D293001205F4E4FF2D
:1003EE00C297EDC313FD30A303430580D2970FBF11
:1003FE0008EEC29300C29700D29700C2A300D2A308
:0F040E0000EDC4540F75F00AA4FFED540F2FFF3B
:01041D0022BC
:10044A00C2AFE4FD7F8E1205E07D507F801205E089
:10045A007D597F821205E07D237F841205E07D802D
:08046A007F8E1205E0D2AF22E3
:04064400D2A07F05BC
:0806480000AE071FEE70F9225D
:0F062800D2A1120644C2A17F05120648C2A02229
:0C065000C2A1120644D2A17F0502064898
:1005B300C2A0A20192A17F05120648120644C2A05E
:0705C300D2A17F05020648EA
:10060700120644A2A19202C2A07F05120648A202C6
:0106170022C0
:02041E00AD0728
:10042000E4FCC2A07F05120648ED30E704D2A180AB
:1004300002C2A17F05120648D2A0ED25E0FD7F058E
:090440001206480CBC08DBC2A046
:010449002290
:10056300E4FC120644ED25E0FD30A103430501C27E
:0C057300A07F051206480CBC08E8AF058C
:01057F002259
:10000E00EC4D6011E8497017ED33EC3304600DE4EC
:10001E00FCFFFEFD22E933E8330470F80201BE1244
:10002E00018958046009E4CC248150062850090245
:10003E0001C82840030201C5C0E0EB4A7044B980F4
:10004E0006D0E0FB0201B4EF4E701CBD8008EBFF42
:10005E00EAFEE9FD80EBE98DF0A4FEE5F00200F783
:10006E00E9CDF9EAFEEBFFEF89F0A4FCE5F0CE89CD
:10007E00F0A42EFFE435F0CD89F0A42DFEE435F08A
:10008E008067EF4E7005BD80D780C3EF8BF0A4ACB8
:10009E00F0EE8BF0A42CFCE435F0F8EF8AF0A42CF3
:1000AE00E5F038FCE433CB8DF0A42CFCE5F03BF806
:1000BE00EE8AF0A42CFCE5F038F8E433CF89F0A4F6
:1000CE002CFCE5F038CF3400CE89F0A42FFFE5F0FC
:1000DE003EFEE433C98DF0A42EFEE5F039CD8AF054
:1000EE00A42FFFE5F03EFEE43DFD33D0E0FB5007CC
:1000FE000BBB000F0201C8EC2CFCEF33FFEE33FEFE
:06010E00ED33FD0201A02B
:1001140075F020800E75F010800575F0087D007E66
:10012400007F003392D530D50312023AEC334010ED
:10013400EF33FFEE33FEED33FDEC33FCD5F0ED226F
:0E014400E5F0247EA2D513CC92E7CDCEFF22AB
:10015200EDD2E7CD33EC3392D524814006E4FFFEA5
:10016200FDFC22FCE4CFCECDCC24E0501174FF8004
:10017200EDC3CC13CCCD13CDCE13CECF13CF0470A1
:07018200F030D5DE02023A65
:10018900E9D2E7C933E833F892D5EDD2E7CD33ECBC
:0701990033FC5002B2D52235
:1001A000EC30E7100FBF000C0EBE00080DBD0004C0
:1001B0000BEB6014A2D5EB13FCED92E7FD2274FF6C
:1001C000FCFDFEFF22E480F8A2D574FF13FC7D80C5
:0301D000E480EFD9
:03000000020248B1
:0C024800787FE4F6D8FD75813C02028F3F
:1001D300EF8DF0A4A8F0CF8CF0A428CE8DF0A42E40
:0201E300FE22FA
:1001E500BC000BBE0029EF8DF084FFADF022E4CCFE
:1001F500F875F008EF2FFFEE33FEEC33FCEE9DECC7
:10020500984005FCEE9DFE0FD5F0E9E4CEFD22ED0C
:10021500F8F5F0EE8420D21CFEADF075F008EF2F56
:10022500FFED33FD4007985006D5F0F222C398FD47
:050235000FD5F0EA22E4
:0E023A00C3E49FFFE49EFEE49DFDE49CFC22D5
:10025400020525E493A3F8E493A34003F68001F296
:1002640008DFF48029E493A3F85407240CC8C333AB
:10027400C4540F4420C8834004F456800146F6DF7A
:10028400E4800B0102040810204080900637E47ECD
:10029400019360BCA3FF543F30E509541FFEE4936F
:1002A400A360010ECF54C025E060A840B8E493A336
:1002B400FAE493A3F8E493A3C8C582C8CAC583CA61
:1002C400F0A3C8C582C8CAC583CADFE9DEE780BE19
:0106430000B6
:00000001FF
