:0C01C2000A09C0F9A4B0999282F880905C
:0B01CF0053A01FEFC43354E042A022F5
:10019600758901758CF7E4F58BD28CD2A9D2AF2282
:10017D00850913850A14850B15850C16850D1785B4
:09018D000E18850F1985101A22C5
:10009A007F061201CFAF087401A807088002C33394
:1000AA00D8FCF5807F071201CF74132508F8E6F50E
:0700BA00800508530807222E
:1000E800AE077F041201CFEED394075011AF067408
:1000F80001A807088002C333D8FCF4528022E4F533
:02010800802253
:10010A00AE077F041201CFEED394075010AF0674E6
:10011A0001A807088002C333D8FC4280227580FFF9
:01012A0022B2
:0D01B50012017D1201967F0812010A80FEE2
:03000B00020149A6
:10014900C0E0C0D075D000C000C007758CF71200A0
:0A0159009AD007D000D0D0D0E032D9
:0401A6007F057E0053
:0B01AA00EF1FAC0670011E4C70F62227
:02012B00AD071E
:10012D00E4FBC294ED1392941201A6D294EDC31385
:0C013D00FD0BBB08ED7F057E000201AA4F
:10016300E4FBC294EDC313FDD294309403430580A2
:090173001201A60BBB08EBAF055D
:01017C002260
:1000C100C200D2947F0C7E001201AAC2947F507E9E
:1000D100001201AAD2947F0A7E001201AAA2949270
:0600E100001201A6A200BE
:0100E70022F6
:0300000002000EED
:0C000E00787FE4F6D8FD758120020055D3
:10001A000201B5E493A3F8E493A34003F68001F246
:10002A0008DFF48029E493A3F85407240CC8C333E7
:10003A00C4540F4420C8834004F456800146F6DFB6
:10004A00E4800B01020408102040809001C2E47E83
:10005A00019360BCA3FF543F30E509541FFEE493AB
:10006A00A360010ECF54C025E060A840B8E493A372
:10007A00FAE493A3F8E493A3C8C582C8CAC583CA9D
:10008A00F0A3C8C582C8CAC583CADFE9DEE780BE55
:0101CE000030
:00000001FF
