:0C0774000A28C0F9A4B0999282F8809085
:0B07990053A01FEFC43354E042A02225
:10075500758901758CF7E4F58BD28CD2A9D2AF22BD
:1006FF0085283685283785283885283985283A85ED
:09070F00283B85283C85283D2289
:10033E00E4FFFE7D207C41AB27AA26A925A8241226
:10034E00000E120152AB07AA067C007D641201E575
:10035E0074282FF8E6F5367C007D0AAF03AE021244
:10036E0001E57C007D0A1201E574282DF8E6547F24
:10037E00F537AE02AF037C007D0A1201E574282D1D
:04038E00F8E6F53860
:010392002248
:1002D4007F8112041F8F217F8312041F8F227F8549
:1002E40012041F8F34E53475F00A842428F8E6F5E7
:1002F40036E53475F00A84742825F0F8E6F5377588
:1003040038BFE52275F00A842428F8E6F539E52299
:1003140075F00A84742825F0F8E6F53A753BBFE5D4
:100324002175F00A842428F8E6F53CE52175F00AE5
:0A03340084742825F0F8E6F53D2258
:1003DE001204FF8F35E53575F064842428F8E6F5B0
:1003EE0036E53575F00A8475F00A84742825F0F820
:1003FE00E6F537E53575F00A84742825F0F8E6F54C
:10040E00387539FF753AFF753BFF753CFF753DFF3B
:01041E0022BB
:10049A00EF75F064842428F8E6F536EF75F00A84DF
:1004AA0075F00A84742825F0F8E6F537EF75F00A36
:1004BA0084742825F0F8E6F5387539FF753AFF7522
:0904CA003BFF753CFF753DFF226C
:100553007F06120799AF237401A807088002C333EB
:10056300D8FCF5807F0712079974362523F8E6F542
:07057300800523532307223A
:1005EB00AE077F04120799EED394075011AF067430
:1005FB0001A807088002C333D8FCF4528022E4F52B
:02060B0080224B
:10062F00AE077F04120799EED394075010AF0674EC
:10063F0001A807088002C333D8FC4280227580FFCF
:01064F002288
:10045F001206FF12075512052B7F0812062F7D3C3F
:10046F007F031206507F037E001205C612049A7F87
:10047F00037E001205C612049AC3E5339464E53275
:0B048F00940040F5E4F532F53380EEF8
:03000B0002060DDD
:10060D00C0E0C0D075D000C000C007758CF70533B1
:10061D00E53370020532120553D007D000D0D0D08B
:02062D00E032B9
:040718007F057E00DB
:10071C007C007D0A1201D3EF1FAC0670011E4C70D9
:02072C00F622B3
:02067100AB07D5
:10067300E4FAC294EB139294120718D294EBC313C7
:0C068300FB0ABA08ED7F057E0002071C90
:1006E500E4FAC294EBC313FBD29430940343038022
:0906F5001207180ABA08EBAF0362
:0106FE0022D9
:10057A00C200D2947F0C7E0012071CC2947F507E68
:10058A000012071CD2947F0A7E0012071CA29492C2
:06059A0000120718A20088
:0105A0002238
:1003930012057A7FCC1206717F441206717FFA7EB2
:1003A3000012071C12057A7FCC1206717FBE12065B
:1003B300717FFA7E0012071C1206E5A9071206E5F3
:1003C300AB0712057AEBFEE9FFFDAC06E412011957
:0A03D300E4FBFA7980783D12000E79
:0103DD0022FD
:10074200E4FEC297EF1392A3EFC313FFD2970EBE3C
:0207520008F0AD
:010754002282
:10072E00C29300C29700D29300120742AF05120780
:04073E0042C29322FE
:10041F00E4FDC29300C29700D29300120742E4FF9B
:10042F00C297EDC313FD30A303430580D2970FBFCF
:10043F0008EEC29300C29700D29700C2A300D2A3C6
:0F044F0000EDC4540F75F00AA4FFED540F2FFFFA
:01045E00227B
:10052B00C2AFE4FD7F8E12072E7D507F8012072E07
:10053B007D597F8212072E7D237F8412072E7D80AB
:08054B007F8E12072ED2AF22B1
:04078100D2A07F285B
:0807850000AE071FEE70F9221F
:0F076500D2A1120781C2A17F28120785C2A0224C
:0C078D00C2A1120781D2A17F28020785BB
:07068F001206ADAD07C20128
:10069600C2A0A20192A17F28120785120781C2A0DB
:0706A600D2A17F28020785A5
:0A06CA00C2AF1207657FA01204D32F
:1006D400120781A2A19201C2A07F28120785A2015C
:0106E40022F3
:0204D300AD0773
:1004D500E4FCC2A07F28120785ED30E704D2A18095
:1004E50002C2A17F28120785D2A0ED25E0FD7F2855
:0904F5001207850CBC08DBC2A053
:0104FE0022DB
:1006AD00E4FC120781ED25E0FD30A103430501C2F5
:0C06BD00A07F281207850CBC08E8AF05E0
:0106C900220E
:0204FF00AB0749
:100501001207657F901204D31206D4AF031204D3ED
:100511001206D412078D1207657F911204D31206B9
:09052100D412068F12078DAF05FC
:01052A0022AE
:1005A100AB07C2AF1207657F901204D31206D47F46
:1005B100401204D31206D4AF031204D31206D4128C
:0505C100078DD2AF22FE
:10065000AB05AA071206CAAF021204D31206D4AF22
:10066000031204D31206D412078DD2AF7FC802073B
:010670008504
:0405C600AB07AA06CF
:1005CA001206CAAF031204D31206D41207657FA11A
:1005DA001204D31206D412068F12078DD2AFAF05BA
:0105EA0022EE
:10000E00EC4D6011E8497017ED33EC3304600DE4EC
:10001E00FCFFFEFD22E933E8330470F80201BE1244
:10002E00018958046009E4CC248150062850090245
:10003E0001C82840030201C5C0E0EB4A7044B980F4
:10004E0006D0E0FB0201B4EF4E701CBD8008EBFF42
:10005E00EAFEE9FD80EBE98DF0A4FEE5F00200F783
:10006E00E9CDF9EAFEEBFFEF89F0A4FCE5F0CE89CD
:10007E00F0A42EFFE435F0CD89F0A42DFEE435F08A
:10008E008067EF4E7005BD80D780C3EF8BF0A4ACB8
:10009E00F0EE8BF0A42CFCE435F0F8EF8AF0A42CF3
:1000AE00E5F038FCE433CB8DF0A42CFCE5F03BF806
:1000BE00EE8AF0A42CFCE5F038F8E433CF89F0A4F6
:1000CE002CFCE5F038CF3400CE89F0A42FFFE5F0FC
:1000DE003EFEE433C98DF0A42EFEE5F039CD8AF054
:1000EE00A42FFFE5F03EFEE43DFD33D0E0FB5007CC
:1000FE000BBB000F0201C8EC2CFCEF33FFEE33FEFE
:06010E00ED33FD0201A02B
:1001140075F020800E75F010800575F0087D007E66
:10012400007F003392D530D50312023AEC334010ED
:10013400EF33FFEE33FEED33FDEC33FCD5F0ED226F
:0E014400E5F0247EA2D513CC92E7CDCEFF22AB
:10015200EDD2E7CD33EC3392D524814006E4FFFEA5
:10016200FDFC22FCE4CFCECDCC24E0501174FF8004
:10017200EDC3CC13CCCD13CDCE13CECF13CF0470A1
:07018200F030D5DE02023A65
:10018900E9D2E7C933E833F892D5EDD2E7CD33ECBC
:0701990033FC5002B2D52235
:1001A000EC30E7100FBF000C0EBE00080DBD0004C0
:1001B0000BEB6014A2D5EB13FCED92E7FD2274FF6C
:1001C000FCFDFEFF22E480F8A2D574FF13FC7D80C5
:0301D000E480EFD9
:03000000020248B1
:0C024800787FE4F6D8FD75813D02028F3E
:1001D300EF8DF0A4A8F0CF8CF0A428CE8DF0A42E40
:0201E300FE22FA
:1001E500BC000BBE0029EF8DF084FFADF022E4CCFE
:1001F500F875F008EF2FFFEE33FEEC33FCEE9DECC7
:10020500984005FCEE9DFE0FD5F0E9E4CEFD22ED0C
:10021500F8F5F0EE8420D21CFEADF075F008EF2F56
:10022500FFED33FD4007985006D5F0F222C398FD47
:050235000FD5F0EA22E4
:0E023A00C3E49FFFE49EFEE49DFDE49CFC22D5
:1002540002045FE493A3F8E493A34003F68001F25D
:1002640008DFF48029E493A3F85407240CC8C333AB
:10027400C4540F4420C8834004F456800146F6DF7A
:10028400E4800B0102040810204080900774E47E8F
:10029400019360BCA3FF543F30E509541FFEE4936F
:1002A400A360010ECF54C025E060A840B8E493A336
:1002B400FAE493A3F8E493A3C8C582C8CAC583CA61
:1002C400F0A3C8C582C8CAC583CADFE9DEE780BE19
:010780000078
:00000001FF
