:0C06CD000A28C0F9A4B0999282F880902D
:0B06F20053A01FEFC43354E042A022CD
:10069E00758901758CF7E4F58BD28CD2A9D2AF2275
:1006180085283685283785283885283985283A85D4
:09062800283B85283C85283D2271
:10033E00E4FFFE7D207C41AB27AA26A925A8241226
:10034E00000E120152AB07AA067C007D641201E575
:10035E0074282FF8E6F5367C007D0AAF03AE021244
:10036E0001E57C007D0A1201E574282DF8E6547F24
:10037E00F537AE02AF037C007D0A1201E574282D1D
:04038E00F8E6F53860
:010392002248
:1002D4007F8112041F8F217F8312041F8F227F8549
:1002E40012041F8F34E53475F00A842428F8E6F5E7
:1002F40036E53475F00A84742825F0F8E6F5377588
:1003040038BFE52275F00A842428F8E6F539E52299
:1003140075F00A84742825F0F8E6F53A753BBFE5D4
:100324002175F00A842428F8E6F53CE52175F00AE5
:0A03340084742825F0F8E6F53D2258
:1003DE001200038F35E53575F064842428F8E6F5B0
:1003EE0036E53575F00A8475F00A84742825F0F820
:1003FE00E6F537E53575F00A84742825F0F8E6F54C
:10040E00387539FF753AFF753BFF753CFF753DFF3B
:01041E0022BB
:1004B3007F061206F2AF237401A807088002C33334
:1004C300D8FCF5807F071206F274362523F8E6F58B
:0704D30080052353230722DB
:10052600AE077F041206F2EED394075011AF06749D
:1005360001A807088002C333D8FCF4528022E4F5F0
:02054600802211
:10056A00AE077F041206F2EED394075010AF06745A
:10057A0001A807088002C333D8FC4280227580FF95
:01058A00224E
:1005010012061812069E12048B7F0812056AC3E5B3
:1005110033940AE532940040F5E4F532F5337F0176
:050521001203DE80E979
:03000B00020548A3
:10054800C0E0C0D075D000C000C007758CF7053377
:10055800E533700205321204B3D007D000D0D0D0F2
:02056800E0327F
:040661007F057E0093
:100665007C007D0A1201D3EF1FAC0670011E4C7091
:02067500F6226B
:02058B00AB07BC
:10058D00E4FAC294EB139294120661D294EBC31366
:0C059D00FB0ABA08ED7F057E000206652F
:1005FE00E4FAC294EBC313FBD2943094034303800A
:09060E001206610ABA08EBAF0301
:0106170022C0
:1004DA00C200D2947F0C7E00120665C2947F507EC1
:1004EA0000120665D2947F0A7E00120665A29492D3
:0604FA0000120661A200E1
:0105000022D8
:100393001204DA7FCC12058B7F4412058B7FFA7E21
:1003A300001206651204DA7FCC12058B7FBE12059C
:1003B3008B7FFA7E001206651205FEA9071205FE61
:1003C300AB071204DAEBFEE9FFFDAC06E4120119F8
:0A03D300E4FBFA7980783D12000E79
:0103DD0022FD
:10068B00E4FEC297EF1392A3EFC313FFD2970EBEF4
:02069B0008F065
:01069D00223A
:10067700C29300C29700D2930012068BAF051206F1
:040687008BC293226D
:10041F00E4FDC29300C29700D2930012068BE4FF53
:10042F00C297EDC313FD30A303430580D2970FBFCF
:10043F0008EEC29300C29700D29700C2A300D2A3C6
:0F044F0000EDC4540F75F00AA4FFED540F2FFFFA
:01045E00227B
:10048B00C2AFE4FD7F8E1206777D507F8012067718
:10049B007D597F821206777D237F841206777D80BC
:0804AB007F8E120677D2AF220A
:0406DA00D2A07F2803
:0806DE0000AE071FEE70F922C7
:0F06BE00D2A11206DAC2A17F281206DEC2A02244
:0C06E600C2A11206DAD2A17F280206DEB3
:10064A00C2A0A20192A17F281206DE1206DAC2A077
:07065A00D2A17F280206DE99
:080631001206BE7F9012045F67
:100639001206DAA2A19201C2A07F281206DEA20147
:01064900228E
:02045F00AD07E7
:10046100E4FCC2A07F281206DEED30E704D2A180B1
:1004710002C2A17F281206DED2A0ED25E0FD7F2871
:090481001206DE0CBC08DBC2A06F
:01048A00224F
:1005A900E4FC1206DAED25E0FD30A103430501C2A2
:0C05B900A07F281206DE0CBC08E8AF058D
:0105C5002213
:1006AE00AB07120631AF0312045F1206390206E6DB
:1005E3001206BE7F9112045F1206391205A9AD07E8
:0A05F300C20112064A1206E6AF0527
:0105FD0022DB
:060003001206AE1205E337
:0100090022D4
:1005C600AB07C2AF1206317F4012045F120639AF85
:0D05D6000312045F1206391206E6D2AF22AE
:10000E00EC4D6011E8497017ED33EC3304600DE4EC
:10001E00FCFFFEFD22E933E8330470F80201BE1244
:10002E00018958046009E4CC248150062850090245
:10003E0001C82840030201C5C0E0EB4A7044B980F4
:10004E0006D0E0FB0201B4EF4E701CBD8008EBFF42
:10005E00EAFEE9FD80EBE98DF0A4FEE5F00200F783
:10006E00E9CDF9EAFEEBFFEF89F0A4FCE5F0CE89CD
:10007E00F0A42EFFE435F0CD89F0A42DFEE435F08A
:10008E008067EF4E7005BD80D780C3EF8BF0A4ACB8
:10009E00F0EE8BF0A42CFCE435F0F8EF8AF0A42CF3
:1000AE00E5F038FCE433CB8DF0A42CFCE5F03BF806
:1000BE00EE8AF0A42CFCE5F038F8E433CF89F0A4F6
:1000CE002CFCE5F038CF3400CE89F0A42FFFE5F0FC
:1000DE003EFEE433C98DF0A42EFEE5F039CD8AF054
:1000EE00A42FFFE5F03EFEE43DFD33D0E0FB5007CC
:1000FE000BBB000F0201C8EC2CFCEF33FFEE33FEFE
:06010E00ED33FD0201A02B
:1001140075F020800E75F010800575F0087D007E66
:10012400007F003392D530D50312023AEC334010ED
:10013400EF33FFEE33FEED33FDEC33FCD5F0ED226F
:0E014400E5F0247EA2D513CC92E7CDCEFF22AB
:10015200EDD2E7CD33EC3392D524814006E4FFFEA5
:10016200FDFC22FCE4CFCECDCC24E0501174FF8004
:10017200EDC3CC13CCCD13CDCE13CECF13CF0470A1
:07018200F030D5DE02023A65
:10018900E9D2E7C933E833F892D5EDD2E7CD33ECBC
:0701990033FC5002B2D52235
:1001A000EC30E7100FBF000C0EBE00080DBD0004C0
:1001B0000BEB6014A2D5EB13FCED92E7FD2274FF6C
:1001C000FCFDFEFF22E480F8A2D574FF13FC7D80C5
:0301D000E480EFD9
:03000000020248B1
:0C024800787FE4F6D8FD75813D02028F3E
:1001D300EF8DF0A4A8F0CF8CF0A428CE8DF0A42E40
:0201E300FE22FA
:1001E500BC000BBE0029EF8DF084FFADF022E4CCFE
:1001F500F875F008EF2FFFEE33FEEC33FCEE9DECC7
:10020500984005FCEE9DFE0FD5F0E9E4CEFD22ED0C
:10021500F8F5F0EE8420D21CFEADF075F008EF2F56
:10022500FFED33FD4007985006D5F0F222C398FD47
:050235000FD5F0EA22E4
:0E023A00C3E49FFFE49EFEE49DFDE49CFC22D5
:10025400020501E493A3F8E493A34003F68001F2BA
:1002640008DFF48029E493A3F85407240CC8C333AB
:10027400C4540F4420C8834004F456800146F6DF7A
:10028400E4800B01020408102040809006CDE47E37
:10029400019360BCA3FF543F30E509541FFEE4936F
:1002A400A360010ECF54C025E060A840B8E493A336
:1002B400FAE493A3F8E493A3C8C582C8CAC583CA61
:1002C400F0A3C8C582C8CAC583CADFE9DEE780BE19
:0106D9000020
:00000001FF
