:0C0886000A28C0F9A4B0999282F8809072
:0B08AB0053A01FEFC43354E042A02212
:10086700758901758CF7E4F58BD28CD2A9D2AF22AA
:1008110085283785283885283985283A85283B85D4
:09082100283C85283D85283E2273
:10045100E4FFFE7D207C41AB27AA26A925A8241212
:10046100000E1201CBAB07AA067C007D6412025E6E
:1004710074282FF8E6F5377C007D0AAF03AE02122F
:10048100025E7C007D0A12025E74282DF8E6547F1C
:10049100F538AE02AF037C007D0A12025E74282D8E
:1004A100F8E6F539753AFF753BFF753CFF753DFF81
:0304B100753EFF96
:0104B4002225
:1003E7007F811205418F217F831205418F227F85EF
:1003F7001205418F34E53475F00A842428F8E6F5B0
:1004070037E53475F00A84742825F0F8E6F5387571
:1004170039BFE52275F00A842428F8E6F53AE52283
:1004270075F00A84742825F0F8E6F53B753CBFE5BE
:100437002175F00A842428F8E6F53DE52175F00AD0
:0A04470084742825F0F8E6F53E2243
:100500001205E68F35E53575F064842428F8E6F5A4
:1005100037E53575F00A8475F00A84742825F0F8FB
:10052000E6F538E53575F00A84742825F0F8E6F527
:1005300039753AFF753BFF753CFF753DFF753EFF12
:010540002298
:10058100EF75F064842428F8E6F537EF75F00A84F6
:1005910075F00A84742825F0F8E6F538EF75F00A4D
:1005A10084742825F0F8E6F539753AFF753BFF7537
:0905B1003CFF753DFF753EFF2281
:100662007F061208ABAF237401A807088002C333C8
:10067200D8FCF5807F071208AB74372523F8E6F51E
:07068200800523532307222A
:10071F00AE077F041208ABEED394075011AF0674E7
:10072F0001A807088002C333D8FCF4528022E4F5F5
:02073F00802216
:10074100AE077F041208ABEED394075010AF0674C6
:1007510001A807088002C333D8FC4280227580FFBC
:010761002275
:10061200C2C443B00FE5B0540F24F9601724FC6044
:100622000F24FE600714700F7536072275360622F6
:0806320075360522753604221D
:1002C10012081112086712063A7F081207417D3C95
:1002D1007F031207627F037E001206FA1205817FF7
:1002E100037E001206FA120581C3E5339414E53248
:1002F100940040F5E4F532F533E53660EC24FB601B
:1003010011146013146040240370DE7F0112050094
:1003110080D71203E780D21204B58F0B8E0A8D09A4
:100321008C08E4FFFE7DF07C41AB0BAA0AA909A869
:1003310008120114500C850B27850A26850925858D
:10034100082412045180A2B2003000077F01120775
:0A0351001F80967F01120741808F84
:03000B000206B03A
:1006B000C0E0C0D075D000C000C007758CF705330E
:1006C000E53370020532120662120612D007D0001E
:0506D000D0D0D0E032A3
:04082A007F057E00C8
:10082E007C007D0A12024CEF1FAC0670011E4C704C
:02083E00F622A0
:02078300AB07C2
:10078500E4FAC294EB13929412082AD294EBC313A1
:0C079500FB0ABA08ED7F057E0002082E6A
:1007F700E4FAC294EBC313FBD2943094034303800F
:0908070012082A0ABA08EBAF033B
:0108100022C5
:10068900C201D2947F0C7E0012082EC2947F507E44
:100699000012082ED2947F0A7E0012082EA294928C
:0606A9000112082AA20163
:0106AF002228
:1004B5001206897FCC1207837F441207837FFA7E59
:1004C5000012082E1206897FCC1207837FBE120701
:1004D500837FFA7E0012082E1207F7A9071207F785
:1004E500AB07120689EBFEE9FFFDAC06E4120192AB
:0A04F500E4FBFA7980783D12000E56
:0104FF0022DA
:10085400E4FEC297EF1392A3EFC313FFD2970EBE29
:0208640008F09A
:01086600226F
:10084000C29300C29700D29300120854AF05120859
:0408500054C29322D9
:10054100E4FDC29300C29700D29300120854E4FF65
:10055100C297EDC313FD30A303430580D2970FBFAC
:1005610008EEC29300C29700D29700C2A300D2A3A3
:0F05710000EDC4540F75F00AA4FFED540F2FFFD7
:010580002258
:10063A00C2AFE4FD7F8E1208407D507F80120840D1
:10064A007D597F821208407D237F841208407D8075
:08065A007F8E120840D2AF228E
:04089300D2A07F2848
:0808970000AE071FEE70F9220C
:0F087700D2A1120893C2A17F28120897C2A02213
:0C089F00C2A1120893D2A17F2802089782
:0707A1001207BFAD07C20102
:1007A800C2A0A20192A17F28120897120893C2A0A2
:0707B800D2A17F280208977F
:0A07DC00C2AF1208777FA01205BA21
:1007E600120893A2A19201C2A07F28120897A20123
:0107F60022E0
:0205BA00AD078B
:1005BC00E4FCC2A07F28120897ED30E704D2A1809A
:1005CC0002C2A17F28120897D2A0ED25E0FD7F285A
:0905DC001208970CBC08DBC2A058
:0105E50022F3
:1007BF00E4FC120893ED25E0FD30A103430501C2CF
:0C07CF00A07F281208970CBC08E8AF05BA
:0107DB0022FB
:0205E600AB0761
:1005E8001208777F901205BA1207E6AF031205BA10
:1005F8001207E612089F1208777F911205BA1207B0
:09060800E61207A112089FAF05DC
:0106110022C6
:1006D500AB07C2AF1208777F901205BA1207E67F03
:1006E500401205BA1207E6AF031205BA1207E61261
:0506F500089FD2AF22B6
:10076200AB05AA071207DCAF021205BA1207E6AF01
:10077200031205BA1207E612089FD2AF7FC8020819
:0107820097DF
:0406FA00AB07AA069A
:1006FE001207DCAF031205BA1207E61208777FA1C4
:10070E001205BA1207E61207A112089FD2AFAF0563
:01071E0022B8
:10000E00EC4D6011E8497017ED33EC3304600DE4EC
:10001E00FCFFFEFD22E933E8330470F802023712CA
:10002E00020258046009E4CC2481500628500902CB
:10003E00024128400302023EC0E0EB4A7044B98000
:10004E0006D0E0FB02022DEF4E701CBD8008EBFFC8
:10005E00EAFEE9FD80EBE98DF0A4FEE5F00200F783
:10006E00E9CDF9EAFEEBFFEF89F0A4FCE5F0CE89CD
:10007E00F0A42EFFE435F0CD89F0A42DFEE435F08A
:10008E008067EF4E7005BD80D780C3EF8BF0A4ACB8
:10009E00F0EE8BF0A42CFCE435F0F8EF8AF0A42CF3
:1000AE00E5F038FCE433CB8DF0A42CFCE5F03BF806
:1000BE00EE8AF0A42CFCE5F038F8E433CF89F0A4F6
:1000CE002CFCE5F038CF3400CE89F0A42FFFE5F0FC
:1000DE003EFEE433C98DF0A42EFEE5F039CD8AF054
:1000EE00A42FFFE5F03EFEE43DFD33D0E0FB5007CC
:1000FE000BBB000F020241EC2CFCEF33FFEE33FE84
:06010E00ED33FD020219B1
:1001140074F8CC6480CCC86480C8F58204604FC392
:10012400EB9FF5F0EA9E42F0E99D42F0E89C45F031
:10013400603C501DE5825FFFE582D313CB5BCBF4BB
:100144002B5582FB50280ABA002409B900200880E4
:100154001DE5825BFBE582D313CF5FCFF4C3132F7E
:100164005582FF50090EBE00050DBD00010CC3EB06
:100174009FF5F0EA9E42F0E99D42F0E89C45F0606C
:0901840007CC4820E701B3EC228E
:10018D0075F020800E75F010800575F0087D007EED
:10019D00007F003392D530D5031202B3EC334010FB
:1001AD00EF33FFEE33FEED33FDEC33FCD5F0ED22F6
:0E01BD00E5F0247EA2D513CC92E7CDCEFF2232
:1001CB00EDD2E7CD33EC3392D524814006E4FFFE2C
:1001DB00FDFC22FCE4CFCECDCC24E0501174FF808B
:1001EB00EDC3CC13CCCD13CDCE13CECF13CF047028
:0701FB00F030D5DE0202B373
:10020200E9D2E7C933E833F892D5EDD2E7CD33EC42
:0702120033FC5002B2D522BB
:10021900EC30E7100FBF000C0EBE00080DBD000446
:100229000BEB6014A2D5EB13FCED92E7FD2274FFF2
:10023900FCFDFEFF22E480F8A2D574FF13FC7D804B
:03024900E480EF5F
:0300000002035B9D
:0C035B00787FE4F6D8FD75813E0203A215
:10024C00EF8DF0A4A8F0CF8CF0A428CE8DF0A42EC6
:02025C00FE2280
:10025E00BC000BBE0029EF8DF084FFADF022E4CC84
:10026E00F875F008EF2FFFEE33FEEC33FCEE9DEC4D
:10027E00984005FCEE9DFE0FD5F0E9E4CEFD22ED93
:10028E00F8F5F0EE8420D21CFEADF075F008EF2FDD
:10029E00FFED33FD4007985006D5F0F222C398FDCE
:0502AE000FD5F0EA226B
:0E02B300C3E49FFFE49EFEE49DFDE49CFC225C
:100367000202C1E493A3F8E493A34003F68001F2E9
:1003770008DFF48029E493A3F85407240CC8C33397
:10038700C4540F4420C8834004F456800146F6DF66
:10039700E4800B0102040810204080900886E47E68
:1003A700019360BCA3FF543F30E509541FFEE4935B
:1003B700A360010ECF54C025E060A840B8E493A322
:1003C700FAE493A3F8E493A3C8C582C8CAC583CA4D
:1003D700F0A3C8C582C8CAC583CADFE9DEE780BE05
:010892000065
:00000001FF
