:0C0562000A26C0F9A4B0999282F880909B
:0B056F0053A01FEFC43354E042A02251
:10055200758901758CF7E4F58BD28CD2A9D2AF22C2
:1005230085263285263385263485263585263685E8
:0905330026378526388526392279
:10034D00E4FFFE7D207C41AB25AA24A923A822121F
:10035D00000E1201CBAB07AA067C007D6412025E73
:10036D0074262FF8E6F5327C007D0AAF03AE02123B
:10037D00025E7C007D0A12025E74262DF8E6547F23
:10038D00F533AE02AF037C007D0A12025E74262D9A
:04039D00F8E6F53455
:0103A1002239
:100438007F0612056FAF217401A807088002C33335
:10044800D8FCF5807F0712056F74322521F8E6F590
:07045800800521532107225A
:10048600AE077F0412056FEED394075011AF0674C2
:1004960001A807088002C333D8FCF4528022E4F591
:0204A6008022B2
:1004CA00AE077F0412056FEED394075010AF06747F
:1004DA0001A807088002C333D8FC4280227580FF36
:0104EA0022EF
:1003A2001205231205527F081204CAC3E531940ACA
:1003B200E530940040F5E4F530F5311203ED8F0B92
:1003C2008E0A8D098C08E4FFFE7DF07C41AB0BAAFE
:1003D2000AA909A808120114500C850B25850A24C4
:0B03E20085092385082212034D80C00E
:03000B000204A844
:1004A800C0E0C0D075D000C000C007758CF705311A
:1004B800E53170020530120438D007D000D0D0D012
:0204C800E03220
:04053C007F057E00B9
:100540007C007D0A12024CEF1FAC0670011E4C703D
:02055000F62291
:0204EB00AB075D
:1004ED00E4FAC294EB13929412053CD294EBC3132D
:0C04FD00FB0ABA08ED7F057E00020540F6
:10050900E4FAC294EBC313FBD294309403430380FF
:0905190012053C0ABA08EBAF031D
:0105220022B6
:10045F00C200D2947F0C7E00120540C2947F507E62
:10046F0000120540D2947F0A7E00120540A294929A
:06047F000012053CA20082
:010485002254
:1003ED0012045F7FCC1204EB7F441204EB7FFA7E84
:1003FD000012054012045F7FCC1204EB7FBE120485
:10040D00EB7FFA7E00120540120509A907120509B6
:10041D00AB0712045FEBFEE9FFFDAC06E41201929F
:0A042D00E4FBFA7980783D12000E1E
:0104370022A2
:10000E00EC4D6011E8497017ED33EC3304600DE4EC
:10001E00FCFFFEFD22E933E8330470F802023712CA
:10002E00020258046009E4CC2481500628500902CB
:10003E00024128400302023EC0E0EB4A7044B98000
:10004E0006D0E0FB02022DEF4E701CBD8008EBFFC8
:10005E00EAFEE9FD80EBE98DF0A4FEE5F00200F783
:10006E00E9CDF9EAFEEBFFEF89F0A4FCE5F0CE89CD
:10007E00F0A42EFFE435F0CD89F0A42DFEE435F08A
:10008E008067EF4E7005BD80D780C3EF8BF0A4ACB8
:10009E00F0EE8BF0A42CFCE435F0F8EF8AF0A42CF3
:1000AE00E5F038FCE433CB8DF0A42CFCE5F03BF806
:1000BE00EE8AF0A42CFCE5F038F8E433CF89F0A4F6
:1000CE002CFCE5F038CF3400CE89F0A42FFFE5F0FC
:1000DE003EFEE433C98DF0A42EFEE5F039CD8AF054
:1000EE00A42FFFE5F03EFEE43DFD33D0E0FB5007CC
:1000FE000BBB000F020241EC2CFCEF33FFEE33FE84
:06010E00ED33FD020219B1
:1001140074F8CC6480CCC86480C8F58204604FC392
:10012400EB9FF5F0EA9E42F0E99D42F0E89C45F031
:10013400603C501DE5825FFFE582D313CB5BCBF4BB
:100144002B5582FB50280ABA002409B900200880E4
:100154001DE5825BFBE582D313CF5FCFF4C3132F7E
:100164005582FF50090EBE00050DBD00010CC3EB06
:100174009FF5F0EA9E42F0E99D42F0E89C45F0606C
:0901840007CC4820E701B3EC228E
:10018D0075F020800E75F010800575F0087D007EED
:10019D00007F003392D530D5031202B3EC334010FB
:1001AD00EF33FFEE33FEED33FDEC33FCD5F0ED22F6
:0E01BD00E5F0247EA2D513CC92E7CDCEFF2232
:1001CB00EDD2E7CD33EC3392D524814006E4FFFE2C
:1001DB00FDFC22FCE4CFCECDCC24E0501174FF808B
:1001EB00EDC3CC13CCCD13CDCE13CECF13CF047028
:0701FB00F030D5DE0202B373
:10020200E9D2E7C933E833F892D5EDD2E7CD33EC42
:0702120033FC5002B2D522BB
:10021900EC30E7100FBF000C0EBE00080DBD000446
:100229000BEB6014A2D5EB13FCED92E7FD2274FFF2
:10023900FCFDFEFF22E480F8A2D574FF13FC7D804B
:03024900E480EF5F
:030000000202C138
:0C02C100787FE4F6D8FD7581390203084F
:10024C00EF8DF0A4A8F0CF8CF0A428CE8DF0A42EC6
:02025C00FE2280
:10025E00BC000BBE0029EF8DF084FFADF022E4CC84
:10026E00F875F008EF2FFFEE33FEEC33FCEE9DEC4D
:10027E00984005FCEE9DFE0FD5F0E9E4CEFD22ED93
:10028E00F8F5F0EE8420D21CFEADF075F008EF2FDD
:10029E00FFED33FD4007985006D5F0F222C398FDCE
:0502AE000FD5F0EA226B
:0E02B300C3E49FFFE49EFEE49DFDE49CFC225C
:1002CD000203A2E493A3F8E493A34003F68001F2A2
:1002DD0008DFF48029E493A3F85407240CC8C33332
:1002ED00C4540F4420C8834004F456800146F6DF01
:1002FD00E4800B0102040810204080900562E47E2A
:10030D00019360BCA3FF543F30E509541FFEE493F5
:10031D00A360010ECF54C025E060A840B8E493A3BC
:10032D00FAE493A3F8E493A3C8C582C8CAC583CAE7
:10033D00F0A3C8C582C8CAC583CADFE9DEE780BE9F
:01056E00008C
:00000001FF
