:0C0154000A09C0F9A4B0999282F88090CA
:0B01610053A01FEFC43354E042A02263
:10013700758901758CF7E4F58BD28CD2A9D2AF22E1
:10011E00850913850A14850B15850C16850D178513
:09012E000E18850F1985101A2224
:10009A007F06120161AF087401A807088002C33302
:1000AA00D8FCF5807F0712016174132508F8E6F57C
:0700BA00800508530807222E
:1000C100AE077F04120161EED394075011AF06749D
:1000D10001A807088002C333D8FCF4528022E4F55A
:0200E10080227B
:1000E300AE077F04120161EED394075010AF06747C
:1000F30001A807088002C333D8FC4280227580FF21
:0101030022D9
:0D01470012011E1201377F081200E380FE36
:03000B00020104EB
:10010400C0E0C0D075D000C000C007758CF71200E5
:0A0114009AD007D000D0D0D0E0321E
:0300000002000EED
:0C000E00787FE4F6D8FD75811A020055D9
:10001A00020147E493A3F8E493A34003F68001F2B4
:10002A0008DFF48029E493A3F85407240CC8C333E7
:10003A00C4540F4420C8834004F456800146F6DFB6
:10004A00E4800B0102040810204080900154E47EF1
:10005A00019360BCA3FF543F30E509541FFEE493AB
:10006A00A360010ECF54C025E060A840B8E493A372
:10007A00FAE493A3F8E493A3C8C582C8CAC583CA9D
:10008A00F0A3C8C582C8CAC583CADFE9DEE780BE55
:01016000009E
:00000001FF
