:0C05BA000A28C0F9A4B0999282F8809041
:0B05C70053A01FEFC43354E042A022F9
:1005AA00758901758CF7E4F58BD28CD2A9D2AF226A
:10055400852835852836852837852838852839859E
:09056400283A85283B85283C2239
:10033E00E4FFFE7D207C41AB27AA26A925A8241226
:10034E00000E120152AB07AA067C007D641201E575
:10035E0074282FF8E6F5357C007D0AAF03AE021245
:10036E0001E57C007D0A1201E574282DF8E6547F24
:10037E00F536AE02AF037C007D0A1201E574282D1E
:04038E00F8E6F53761
:010392002248
:1002D4007F811203DE8F217F831203DE8F227F85CD
:1002E4001203DE8F34E53475F00A842428F8E6F529
:1002F40035E53475F00A84742825F0F8E6F536758A
:1003040037BFE52275F00A842428F8E6F538E5229B
:1003140075F00A84742825F0F8E6F539753ABFE5D6
:100324002175F00A842428F8E6F53BE52175F00AE6
:0A03340084742825F0F8E6F53C2259
:100446007F061205C7AF237401A807088002C333CD
:10045600D8FCF5807F071205C774352523F8E6F525
:070466008005235323072248
:1004B700AE077F041205C7EED394075011AF067439
:1004C70001A807088002C333D8FCF4528022E4F560
:0204D700802281
:1004FB00AE077F041205C7EED394075010AF0674F6
:10050B0001A807088002C333D8FC4280227580FF04
:01051B0022BD
:100494001205541205AA12041E7F081204FBC3E5B8
:1004A40033940AE532940040F5E4F532F533120250
:0304B400D480EB06
:03000B000204D913
:1004D900C0E0C0D075D000C000C007758CF70533E7
:1004E900E53370020532120446D007D000D0D0D0CF
:0204F900E032EF
:04056D007F057E0088
:100571007C007D0A1201D3EF1FAC0670011E4C7086
:02058100F62260
:02051C00AB072B
:10051E00E4FAC294EB13929412056DD294EBC313CA
:0C052E00FB0ABA08ED7F057E0002057193
:10053A00E4FAC294EBC313FBD294309403430380CE
:09054A0012056D0ABA08EBAF03BB
:010553002285
:10046D00C200D2947F0C7E00120571C2947F507E23
:10047D0000120571D2947F0A7E00120571A294922A
:06048D000012056DA20043
:010493002246
:1003930012046D7FCC12051C7F4412051C7FFA7E6C
:1003A3000012057112046D7FCC12051C7FBE12056D
:1003B3001C7FFA7E0012057112053AA90712053A4D
:1003C300AB0712046DEBFEE9FFFDAC06E412011965
:0A03D300E4FBFA7980783D12000E79
:0103DD0022FD
:10059700E4FEC297EF1392A3EFC313FFD2970EBEE9
:0205A70008F05A
:0105A900222F
:10058300C29300C29700D29300120597AF051205DC
:0405930097C2932256
:1003DE00E4FDC29300C29700D29300120597E4FF8A
:1003EE00C297EDC313FD30A303430580D2970FBF11
:1003FE0008EEC29300C29700D29700C2A300D2A308
:0F040E0000EDC4540F75F00AA4FFED540F2FFF3B
:01041D0022BC
:10041E00C2AFE4FD7F8E1205837D507F801205836F
:10042E007D597F821205837D237F841205837D8013
:08043E007F8E120583D2AF226C
:10000E00EC4D6011E8497017ED33EC3304600DE4EC
:10001E00FCFFFEFD22E933E8330470F80201BE1244
:10002E00018958046009E4CC248150062850090245
:10003E0001C82840030201C5C0E0EB4A7044B980F4
:10004E0006D0E0FB0201B4EF4E701CBD8008EBFF42
:10005E00EAFEE9FD80EBE98DF0A4FEE5F00200F783
:10006E00E9CDF9EAFEEBFFEF89F0A4FCE5F0CE89CD
:10007E00F0A42EFFE435F0CD89F0A42DFEE435F08A
:10008E008067EF4E7005BD80D780C3EF8BF0A4ACB8
:10009E00F0EE8BF0A42CFCE435F0F8EF8AF0A42CF3
:1000AE00E5F038FCE433CB8DF0A42CFCE5F03BF806
:1000BE00EE8AF0A42CFCE5F038F8E433CF89F0A4F6
:1000CE002CFCE5F038CF3400CE89F0A42FFFE5F0FC
:1000DE003EFEE433C98DF0A42EFEE5F039CD8AF054
:1000EE00A42FFFE5F03EFEE43DFD33D0E0FB5007CC
:1000FE000BBB000F0201C8EC2CFCEF33FFEE33FEFE
:06010E00ED33FD0201A02B
:1001140075F020800E75F010800575F0087D007E66
:10012400007F003392D530D50312023AEC334010ED
:10013400EF33FFEE33FEED33FDEC33FCD5F0ED226F
:0E014400E5F0247EA2D513CC92E7CDCEFF22AB
:10015200EDD2E7CD33EC3392D524814006E4FFFEA5
:10016200FDFC22FCE4CFCECDCC24E0501174FF8004
:10017200EDC3CC13CCCD13CDCE13CECF13CF0470A1
:07018200F030D5DE02023A65
:10018900E9D2E7C933E833F892D5EDD2E7CD33ECBC
:0701990033FC5002B2D52235
:1001A000EC30E7100FBF000C0EBE00080DBD0004C0
:1001B0000BEB6014A2D5EB13FCED92E7FD2274FF6C
:1001C000FCFDFEFF22E480F8A2D574FF13FC7D80C5
:0301D000E480EFD9
:03000000020248B1
:0C024800787FE4F6D8FD75813C02028F3F
:1001D300EF8DF0A4A8F0CF8CF0A428CE8DF0A42E40
:0201E300FE22FA
:1001E500BC000BBE0029EF8DF084FFADF022E4CCFE
:1001F500F875F008EF2FFFEE33FEEC33FCEE9DECC7
:10020500984005FCEE9DFE0FD5F0E9E4CEFD22ED0C
:10021500F8F5F0EE8420D21CFEADF075F008EF2F56
:10022500FFED33FD4007985006D5F0F222C398FD47
:050235000FD5F0EA22E4
:0E023A00C3E49FFFE49EFEE49DFDE49CFC22D5
:10025400020494E493A3F8E493A34003F68001F228
:1002640008DFF48029E493A3F85407240CC8C333AB
:10027400C4540F4420C8834004F456800146F6DF7A
:10028400E4800B01020408102040809005BAE47E4B
:10029400019360BCA3FF543F30E509541FFEE4936F
:1002A400A360010ECF54C025E060A840B8E493A336
:1002B400FAE493A3F8E493A3C8C582C8CAC583CA61
:1002C400F0A3C8C582C8CAC583CADFE9DEE780BE19
:0105C6000034
:00000001FF
